:100000000C9411010C942E010C942E010C942E01D1
:100010000C942E010C942E010C942E010C942E01A4
:100020000C942E010C942E010C942E010C94BC0403
:100030000C94F6040C942E010C942E010C942E01B9
:100040000C942E010C942E010C942E010C942E0174
:100050000C942E010C942E010C942E010C942E0164
:100060000C942E010C942E010C942E010C942E0154
:100070000C942E0162045D04580453044E04490498
:1000800044043F043A04350430042B0426042104BC
:100090001C04170412040D0408040304FE03F903EE
:1000A000F403EF03EA03E503E003DB03D603D10324
:1000B000CC03C703C2033230302057656C636F6DC9
:1000C000650D0A00343034204E756D626572206F04
:1000D000662074726965732065786365656465641C
:1000E0000D0A0076657269667900323031205665F6
:1000F0007269666965640D0A003430312056657294
:10010000696669636174696F6E206661696C6564B4
:100110000D0A0073746F726500343032204E6F74B4
:100120002076657269666965640D0A003430332093
:10013000496E76616C6964206E6F6E63650D0A00AE
:10014000323032204E6F6E63652077726974746549
:100150006E0D0A0034303020556E6B6E6F776E2056
:10016000636F6D6D616E640D0A00000100009E01F9
:100170001200020000B0014300030000F30104017B
:10018000030904F701080203090401021603030925
:10019000041902060001C112018026018126120104
:1001A000000202000010C0167A04000101020301DF
:1001B00009024300020100C03209040000010202EA
:1001C0000100052400100105240101010424020698
:1001D0000524060001070582031000400904010000
:1001E000020A000000070503022000000705840240
:1001F00020000004030904080346004100550000E4
:1002000000160355005300420020005300650072A1
:1002100000690061006C0000000603340032000039
:10022000000011241FBECFEFD2E0DEBFCDBF11E032
:10023000A0E0B1E0ECE5FDE002C005900D92A83031
:10024000B107D9F711E0A8E0B1E001C01D92AE34CA
:10025000B107E1F70E9442010C94AC060C94000037
:10026000CF93DF93EC012196FC018491882339F030
:100270000E94F202FE01219684918111F9CFDF9153
:10028000CF910895CF93DF93CDB7DEB7C058D10992
:100290000FB6F894DEBF0FBECDBF80E8809361003B
:1002A000109261000E947C020E9492028823E1F376
:1002B000569A5E982FEF83EC99E021508040904051
:1002C000E1F700C000005E9AEFEFF3EC29E0E150A7
:1002D000F0402040E1F700C000005E988FEF93EC03
:1002E000E9E081509040E040E1F700C000005E9AF4
:1002F000FFEF23EC89E0F15020408040E1F700C09F
:1003000000005E989FEFE3ECF9E09150E040F04090
:10031000E1F700C000005E9A40E450E060E070E069
:1003200088E091E00E9484060E948E0480FFFCCF4A
:100330000E94DB0286EB90E00E94300100E0CC24BA
:10034000C394D12CCC0EDD1EEE24E3940038C0F40F
:100350000E9495028F3F2FEF9207C1F38D309105D8
:1003600079F08A30910561F09C01205231092F35D6
:10037000310560F7F60181936F010F5F003840F39C
:1003800010914801133058F084EC90E00E94300145
:1003900000E0CC24C394D12CCC0EDD1ED9CF46E096
:1003A00050E063EE70E0CE0101960E946906892B51
:1003B000E9F480914901811119C040E450E068E0FE
:1003C00071E0CE0108960E947706009709F048C0B8
:1003D000E09249015E988AEE90E00E94300100E0D0
:1003E000CC24C394D12CCC0EDD1EB2CF45E050E01E
:1003F00063E171E0CE0101960E946906892B91F4B8
:1004000080914901882309F46CC00634B0F48CE271
:1004100091E00E94300100E0CC24C394D12CCC0E9A
:10042000DD1E96CF84E591E00E94300100E0CC24EF
:10043000C394D12CCC0EDD1E8BCF40E450E060E0A5
:1004400070E0CE0107960E94940680E491E00E943D
:10045000300100E0CC24C394D12CCC0EDD1E78CF2B
:100460001F5F109348015E98FFEF21EE84E0F1508A
:1004700020408040E1F700C000005E9A9FEFE1EE6F
:10048000F4E09150E040F040E1F700C000005E98D9
:100490002FEF81EE94E0215080409040E1F700C0C2
:1004A00000005E9AEFEFF1EE24E0E150F0402040D2
:1004B000E1F700C000005E988FEF91EEE4E081501C
:1004C0009040E040E1F700C000005E9A89EF90E0C4
:1004D0000E94300100E0CC24C394D12CCC0EDD1E50
:1004E00037CF89E191E00E94300100E0CC24C39431
:1004F000D12CCC0EDD1E2CCF80EA8093D80086E074
:1005000089BD09B400FEFDCF80E88093D800109229
:10051000E00010924B0110924C018CE08093E200BD
:100520007894089580914B0108953FB7F894809195
:100530004B01882301F183E08093E9008091E8007A
:1005400085FD0CC082FF17C09BE602C082FF13C06E
:100550009093E8008091E80085FFF8CF2091F100AA
:100560008091E80085FD03C08BE68093E8003FBFE3
:1005700030E0C90108953FBF2FEF3FEFC901089553
:100580009FB7F89480914B01882391F083E080938A
:10059000E9008091F200811109C02091E80022FF5A
:1005A00007C025FD05C02BE62093E8009FBF0895F6
:1005B00080E09FBF089580914B01882391F02FB771
:1005C000F89483E08093E9008091E80085FF07C0FC
:1005D0009BE69093E8008091E80085FDFACF2FBF5D
:1005E0000895089590914B01992309F443C09FB752
:1005F000F89424E02093E90020914D01211132C0AC
:100600003091E400375E2091E80025FD1CC09FBFBB
:100610009091E400931781F190914B01992351F14E
:1006200044E009C09FBF9091E400931729F1909195
:100630004B019923F9F09FB7F8944093E90020917A
:10064000E80025FFEFCF8093F1008091E80085FD61
:1006500003C08AE38093E80085E080934A019FBF4E
:1006600080E008952091E80025FF03C010924D011D
:10067000C7CF9FBF8FEF089581E080934D018FEF2B
:10068000089590914B019923C1F02FB7F89494E00D
:100690009093E9009091E80095FF11C08093F100DC
:1006A0008091E80085FD03C08AE38093E80085E03F
:1006B00080934A012FBF80E008958FEF08952FBFE8
:1006C0008FEF08950F931F93CF938C0180914B016F
:1006D000882399F14FB7F89484E08093E9008091E2
:1006E0004D0181112FC06115710509F4F7C054E067
:1006F000B0E2CAE3A5E09091E400975E8091E80043
:1007000085FF0DC026C080914B018823B1F04FB703
:10071000F8945093E9008091E80085FD1AC04FBF1E
:100720008091E4008913EFCF81E080934D018FEF3A
:10073000CF911F910F9108954FBF8FEFCF911F91D0
:100740000F9108958091E80085FFF6CF10924D013A
:10075000CACF8091F2009B2F981B892F292F30E060
:100760006217730718F4862F9B013327621B730BE4
:1007700090E08132910508F0A0C0865C9F4FFC019B
:100780000C946306F80181918F018093F100F801C8
:1007900081918F018093F100F80181918F01809305
:1007A000F100F80181918F018093F100F8018191AE
:1007B0008F018093F100F80181918F018093F10006
:1007C000F80181918F018093F100F80181918F01EF
:1007D0008093F100F80181918F018093F100F8017D
:1007E00081918F018093F100F80181918F018093B5
:1007F000F100F80181918F018093F100F80181915E
:100800008F018093F100F80181918F018093F100B5
:10081000F80181918F018093F100F80181918F019E
:100820008093F100F80181918F018093F100F8012C
:1008300081918F018093F100F80181918F01809364
:10084000F100F80181918F018093F100F80181910D
:100850008F018093F100F80181918F018093F10065
:10086000F80181918F018093F100F80181918F014E
:100870008093F100F80181918F018093F100F801DC
:1008800081918F018093F100F80181918F01809314
:10089000F100F80181918F018093F100F8018191BD
:1008A0008F018093F100F80181918F018093F10015
:1008B000F80181918F018093F100F80181918F01FE
:1008C0008093F1008091E80085FFC093E800A09339
:1008D0004A014FBF6115710509F00DCF80E02ECFA1
:1008E0008FB7F89490914A01992341F094E0909346
:1008F000E9009AE39093E80010924A018FBF0895AF
:1009000060E071EE80E090E0089580910401089528
:1009100080910501089580910601089580914C0110
:1009200008952FB7F89490914B01992311F192E01B
:100930009093E9009091E80095FF1BC091EA909395
:10094000F10090E29093F1001092F1001092F1000A
:100950001092F1001092F10091E09093F10010924A
:10096000F1008093F1008AE38093E8002FBF80E0DC
:1009700008952FBF8FEF08951F920F920FB60F9219
:1009800011248F939F938091E1001092E10083FFE7
:1009900011C01092E90091E09093EB001092EC00EE
:1009A00092E19093ED0098E09093F00010924B014B
:1009B00010924C0182FF13C080914B01882379F083
:1009C00080914A01882359F0815080934A01811116
:1009D00006C084E08093E9008AE38093E8009F9159
:1009E0008F910F900FBE0F901F9018951F920F922E
:1009F0000FB60F9211242F933F934F935F936F93F2
:100A00007F938F939F93AF93BF93CF93EF93FF9376
:100A10001092E9008091E80083FF2EC07091F100F0
:100A20004091F1002091F1003091F100932F80E08E
:100A3000FC01E22B9F015091F1006091F100962F93
:100A400080E0852BA091F100B091F10052EF50931E
:100A5000E800463031F1453009F4B3C0493009F4BB
:100A600043C0483009F4B8C0413209F4C4C0403230
:100A700009F0DCC0713221F181E28093EB00FF913B
:100A8000EF91CF91BF91AF919F918F917F916F9196
:100A90005F914F913F912F910F900FBE0F901F903C
:100AA0001895C6E04AE651E0FA016591749126175F
:100AB000370709F446C0495F5F4FC150A9F7DCCF43
:100AC0008091E80082FFFCCFE0E0F1E08091F1004E
:100AD000819381E0E730F807C9F78BEF8093E80056
:100AE0008EEF8093E800CBCF7111C6CF20934B01DE
:100AF00010924C0110924A018EEF8093E80041E081
:100B000084E991E04093E9009C012F5F3F4FFC0195
:100B100054915093EB00552309F486C0F9012491B8
:100B20002093EC00FC0132960396E491E093ED00F3
:100B30004F5F453039F78EE18093EA001092EA006A
:100B40009ECFFA013296659174918617970709F046
:100B5000B2CFFA013496859194919C01FA013696B0
:100B600044919B2F80E08A2B8F3F910519F010F064
:100B70008FEF90E0841708F4482F7EEF8091E80013
:100B8000982F9570D9F382FD7ACF642F413108F404
:100B900046C060E1C901562FFC010196E491E09343
:100BA000F1005150C9F7862F815090E00196280F2F
:100BB000391F461B7093E8004111E0CF6031F1F21C
:100BC0005ECF8EEF8093E8008091E80080FFFCCF3D
:100BD00020682093E30053CF703809F04DCF809107
:100BE000E80080FFFCCF80914B018093F1008EEFF5
:100BF0008093E80044CF713A09F03ECF8091E8003D
:100C000080FFFCCFE0E0F1E081918093F10081E092
:100C1000E730F807C9F78EEF8093E80030CF411135
:100C2000B9CF7093E8002BCFC90182CF423251F483
:100C3000713209F021CF20934C018091E80080FFB0
:100C4000FCCFE9CF41110CC02091E80020FFFCCF80
:100C5000723861F180E08093F1001092F100DBCFF7
:100C6000413071F5723009F007CF232B09F004CF22
:100C70008F779927282F2150243008F0FDCE2EEFB2
:100C80002093E8008093E900433009F4F5CE99E120
:100C90009093EB0021E030E0082E01C0220F0A946F
:100CA000EAF72093EA001092EA00E9CE8093E90087
:100CB0008091EB0085FB882780F91092E900CBCF6B
:100CC000433081F2D9CEEE0FFF1F0590F491E02D55
:100CD0000994FB01DC014150504030F08D910590AA
:100CE000801919F40020B9F7881B990B0895FB01AE
:100CF000DC0104C08D910190801921F441505040D5
:100D0000C8F7881B990B0895DC01CB01FC01F99908
:100D1000FECF06C0F2BDE1BDF89A319600B40D9247
:100D200041505040B8F70895DC01CB0103C02D912C
:100D30000E949F0641505040D0F70895262FF99900
:100D4000FECF1FBA92BD81BD20BD0FB6F894FA9AAE
:0C0D5000F99A0FBE01960895F894FFCFA9
:080D5C0000E1000000000800A6
:00000001FF
