:1000000000200020F90000004D1500001915000027
:100010001915000019150000191500001915000028
:100020001915000019150000191500004D150000E4
:100030004D150000191500004D15000009150000B0
:100040004D1500004D1500004D1500004D15000028
:100050004D1500004D1500004D1500004D15000018
:100060004D1500004D1500004D1500004D15000008
:100070004D1500004D1500004D1500004D150000F8
:10008000251A00004D150000CD1E00004D15000082
:10009000192300004D1500004D1500004D150000FE
:1000A0004D1500004D1500004D1500004D150000C8
:1000B0004D1500004D1500004D1500004D150000B8
:1000C0004D1500004D1500004D150000E10A00001F
:1000D0004D1500004D1500004D1500004D15000098
:1000E0004D1500004D1500004D1500004D15000088
:1000F0004D1500004D150000544B4CF2205210B528
:100100001A804DF628121A8000BF00BF01F022FAB3
:100110004F4B504A1A60504A5A60A3F53043283B6F
:100120001A6812F4807204D14C490A604FF4A85244
:100130001A604B4B1A78110703D51A7842F008025F
:100140001A70484B2A221A700023474A47499818C8
:10015000884204D24649595899500433F5E7454A34
:10016000454B9A424FF0000302D242F8043BF7E7B6
:100170004249434A595899500433F82BF8D1414B1E
:10018000802103F8011B40498B42F9D13F4B1A6093
:100190003F4B0A221A70A3F5805324225A70A022E2
:1001A0001A709A799207FCD59A79D406FCD4394B07
:1001B0009A7902F00C02082AF9D103221A7140221E
:1001C0005A719A799006FCD5324B9A795106FBD533
:1001D000314A324911600221516020221A702D4BA0
:1001E0009B7903F00C030C2BF9D12D4B2D4A1A608F
:1001F0002D4B4BF67F321A6000225A60072243F8DB
:10020000042C2A4AC3F80C2D62B600F059FB134B9C
:100210001B68DA0705D5264800F0D2FA254B264A96
:100220001A60264B1B785B0609D5224C224A2368AC
:10023000934204D11E4800F0C3FA0023236002F069
:10024000CDFA01F08DF900F017F9FEE70E20054018
:1002500038800440823F04000100002B14D003408A
:1002600002D0074000E0074060E5FF1F44E6FF1FA3
:10027000F82B000044E6FF1F70E9FF1F000000009C
:1002800000E1FF1F00E400E02EE400E008ED00E0E4
:100290000050064000400640448004400000031126
:1002A00004800440C010050014E000E0000020209D
:1002B0005275E3561CE00340A5C3945A00F0074072
:1002C000FFFFFFFFFFFFFFFFFFFFFFFFFFFFFFFF3E
:1002D000FFFFFFFFFFFFFFFFFFFFFFFFFFFFFFFF2E
:1002E000FFFFFFFFFFFFFFFFFFFFFFFFFFFFFFFF1E
:1002F000FFFFFFFFFFFFFFFFFFFFFFFFFFFFFFFF0E
:10030000FFFFFFFFFFFFFFFFFFFFFFFFFFFFFFFFFD
:10031000FFFFFFFFFFFFFFFFFFFFFFFFFFFFFFFFED
:10032000FFFFFFFFFFFFFFFFFFFFFFFFFFFFFFFFDD
:10033000FFFFFFFFFFFFFFFFFFFFFFFFFFFFFFFFCD
:10034000FFFFFFFFFFFFFFFFFFFFFFFFFFFFFFFFBD
:10035000FFFFFFFFFFFFFFFFFFFFFFFFFFFFFFFFAD
:10036000FFFFFFFFFFFFFFFFFFFFFFFFFFFFFFFF9D
:10037000FFFFFFFFFFFFFFFFFFFFFFFFFFFFFFFF8D
:10038000FFFFFFFFFFFFFFFFFFFFFFFFFFFFFFFF7D
:10039000FFFFFFFFFFFFFFFFFFFFFFFFFFFFFFFF6D
:1003A000FFFFFFFFFFFFFFFFFFFFFFFFFFFFFFFF5D
:1003B000FFFFFFFFFFFFFFFFFFFFFFFFFFFFFFFF4D
:1003C000FFFFFFFFFFFFFFFFFFFFFFFFFFFFFFFF3D
:1003D000FFFFFFFFFFFFFFFFFFFFFFFFFFFFFFFF2D
:1003E000FFFFFFFFFFFFFFFFFFFFFFFFFFFFFFFF1D
:1003F000FFFFFFFFFFFFFFFFFFFFFFFFFFFFFFFF0D
:10040000FFFFFFFFFFFFFFFFFFFFFFFFFEFFFFFFFD
:1004100010B5054C237833B9044B13B10448AFF33E
:1004200000800123237010BD44E6FF1F0000000080
:10043000F82B000008B5064B1BB106480649AFF380
:1004400000800648036813B1054B03B1984708BD07
:1004500000000000F82B000048E6FF1F44E6FF1FE5
:100460000000000010B5044614F8010B10B100F0B4
:1004700083FFF9E710BDFFFF2DE9F04FA3B0614BFB
:100480001B78D907FBD5604F604E202400F0F4FEA6
:1004900001210D2000F0C4F93C60C82000F0FAF9F9
:1004A0003460C82000F0F6F93C60C82000F0F2F992
:1004B0003460C82000F0EEF93C60C82000F0EAF992
:1004C0003460C82000F0E6F93C60C82000F0E2F992
:1004D00034604F484F49402200F0F4F84E48FFF78F
:1004E000C1FF02ADB04600242E46802C06D200F09B
:1004F00073FE03B25A1CF8D00D2B07D1DFF844A1CC
:100500009AF800B0BBF1020F0CD974E00A2BF5D0B9
:10051000A0F120039BB25E2BE7D801342870E4B22F
:100520000135E2E730463D49062202F094F9002801
:100530003ED13B4B93F80090B9F1000F38D10DF14B
:100540000F0033490193402202F06EF92025044642
:10055000019B30B901221A7032483D60FFF782FFDB
:100560004DE00BF1010B8AF800B064203D6000F013
:1005700091F96420C8F8005000F08CF964203D60C7
:1005800000F088F96420C8F8005000F083F9642076
:100590003D6000F07FF96420C8F8005000F07AF95F
:1005A00064203D6000F076F9C8F800501E480DE068
:1005B00030461E49052202F04EF90546C8B9184BCF
:1005C00093F80090B9F1000F04D11948FFF74AFFE2
:1005D0004C4614E0452C01D8164806E00DF10E00FB
:1005E0000C49402200F092F81348FFF73BFF2C46DD
:1005F00005E0124800E01248FFF734FF00243546BA
:1006000075E700BF98E7FF1F84F00F4088F00F40A8
:1006100060E6FF1F60E5FF1F8428000092280000AD
:10062000A0E6FF1F99280000A8280000C2280000AB
:10063000C8280000DB280000EF2800000329000084
:1006400019290000A1E6FF1F024B1B78DB07FBD531
:10065000704700BF010002407FB5174B6A4603F1A7
:1006600010056E4618685968144603C40833AB4237
:100670002246F7D1114B1A7812F0020F1D4612D004
:1006800080229A7133229A7203225A7272B60C4CEB
:1006900046F001062046B04762B6237813F0700397
:1006A00001D0237006E044F621632A78D20701D4F2
:1006B000013BFAD104B070BD3829000001000240AE
:1006C0000000024070B5104B1B78DB0705460C4656
:1006D00001EB020601D4FFF7BFFFB6F5006F34BF90
:1006E00032464FF4006204F1A05303F16C41914291
:1006F00008D213F8010B291B194401F16C4101F8D0
:10070000010CF2E770BD00BF01000240B1F5006FBF
:10071000F8B505460F4614460E464DD2274B1B78BA
:10072000DB0701D4FFF798FFB4F5006F28BF4FF443
:1007300000643B19B3F5006F1ED3C7F500641BE0DE
:1007400016F003012A7806F1A05318D1032C18D90A
:10075000A9786878090441EA00210A43E97842EA65
:1007600001621968914205F1040702D01A60FFF78F
:100770006BFF0436043C3D46002CE1D11CE002290D
:100780000FD1012C0DD0697842EA012219889142DB
:1007900005F1020702D01A80FFF756FF0236023C2D
:1007A000E9E71978914205F1010502D01A70FFF7C7
:1007B0004BFF0136013CDFE7F8BD00BF01000240FE
:1007C000044B054900221A600A60044A1060102296
:1007D0001A60704714D0034004D0034000D0034097
:1007E000212810B518D80D4A52F8303093F88042BD
:1007F0003CB1012211B183F8802010BD83F80021A3
:1008000010BD02EBC00043681A6811B142F0030248
:1008100001E022F002021A6010BD00BF482900006A
:10082000212816D80B4A02EBC00301295B6852F855
:10083000302004D182F880124FF4A27208E0002028
:1008400082F8800211B94FF4807201E040F2031285
:100850001A6070474829000072B60B4B0B491A68A2
:100860000B4B1B68096862B6490102D5322A88BF62
:100870000133C2F53B4230217F32B2FBF1F24FF43B
:100880007A7000FB0320704718E000E004ED00E000
:10089000A4E6FF1F38B50446FFF7DEFF054624B97E
:1008A00038BD013C0AD005F57A75FFF7D5FF401B2E
:1008B000B0F57A7FF5D200F0BDFDF6E738BDFFFF59
:1008C0001B4B4FF4807210B51A604FF400721A601F
:1008D0004FF480621A604FF400621A604FF4805245
:1008E0001A60144B144A154C00204BF6FF71186027
:1008F00059602823136093601361936113629362BC
:10090000136393630922226004F580540434206049
:100910000B4801600B490B608B600B4B1A6000F0B9
:10092000A9FDFA20FFF7B6FFBDE8104000F0D6BBE6
:1009300004E100E0048003400C8003400080034099
:10094000089003400C90034000900340F0B50C4B1E
:100950000C4C1A7842F0020504EBC50682F0010245
:10096000706009481A700678002E0CBF8827C827C7
:1009700086F0010647EA0141067044F83510F0BDE3
:1009800010E7FF1F00E0FF1F88E7FF1F431E032B38
:1009900010B510D872B6094A52F8230048B1416820
:1009A00042F82310064A018832F81340611A22F8EF
:1009B000131062B610BD002010BD00BF00E7FF1F7E
:1009C0005CE9FF1F013803280AD872B6054B53F8BB
:1009D0002030002013B101305B68FBE762B670473E
:1009E0000020704754E7FF1F10B572B60123174A65
:1009F0001A4412F8012C12071CD59900144A52F817
:100A000031402CB902EB431308305860114B09E018
:100A100041F0010152F8314064B902EBC1030830E2
:100A200058600D4B42F831300C4B1A78013A1A706D
:100A300062B610BD0133052BD9D162B6074B002237
:100A40001A70BDE8104000F0A5BB00BF582A000096
:100A500000E0FF1F88004000C80040007EE7FF1F45
:100A6000431E032B30B532D8194A400140F0100024
:100A7000104472B6174CE25C032A09D8DFE802F092
:100A8000160218050830022213E00830042210E094
:100A90001148124A50F8234014B940F8231002E0DC
:100AA00052F82300416042F823100FE0032200E0D7
:100AB0000522E25410F0080F01F108030A88436090
:100AC0000CBF8823C82343EA0243036062B630BDEB
:100AD00000E0FF1FBCE6FF1F54E7FF1F64E7FF1F96
:100AE0002DE9F84FAB4F3C78E4B214F0040F3D46CB
:100AF00019D0A94B1B78A3B1A84A117801F0FF03C4
:100B000021B1013BDBB2137003B900BEA44A1178D6
:100B100001F0FF0329B1013BDBB213700BB900F008
:100B200065FC04233B7004F0080303F0FF02002B74
:100B300000F067829B4B9C4C1A78D2B215094FEAA1
:100B4000920840F0E48104EBC803596854F8383047
:100B5000C3F38303013B0C2B00F2D681DFE813F0D3
:100B600095019501D401D401D401D401D401D4015B
:100B7000B001D401D401D4010D008C4D0A684B683A
:100B80008B486B6001218B4B44F838302A60DFF8CA
:100B90005082017092B240F2816000238242C8F814
:100BA00000302361A36117D8B2F5D06F80F01E81A9
:100BB000B2F5817F00F0CF8006D8802A00F0BA809D
:100BC000822A00F0BB8031E140F202339A4200F009
:100BD000D180B2F5A06F1CE042F22100824200F009
:100BE00051810ED8B2F5086F00F09E80B2F5106FFB
:100BF00040F01C81684B6C4EAA781A7006F180098F
:100C00000AE042F221218A4200F0088142F22133B7
:100C10009A4200F00F8109E1336A1B0603D5706A1E
:100C2000083800F0B7FA08364E45F5D10026B1462F
:100C3000DFF8B0A156F80A0028B1D0F804B000F0EF
:100C4000A9FA5846F8E74AF806005B4BDFF898A186
:100C5000F05056F80A0028B1D0F804B000F09AFA23
:100C60005846F8E7554B4AF80600F050544B23F825
:100C70001900544B19F80320023A032A08D8DFE878
:100C800002F002040204002200E0012203F809201D
:100C900009F10109B9F1040F06F10406C8D14A4B64
:100CA00000221A7001269A46484A494B324433447E
:100CB00012F8012C9B0012F0080F1A704FEA8609F7
:100CC00025D000F049FA38B104EB461308305860DB
:100CD000404B44F8393006E09AF8003044F83900C7
:100CE00001338AF8003000F037FA49F0010338B1D7
:100CF00004EBC302083050602E4A44F8332006E06B
:100D000044F833009AF8003001338AF8003049F093
:100D10000202013649F003090023052E44F832305F
:100D200044F83930C0D186E01B4B2B4C1B78237024
:100D30000B4683E0284C237063707EE0AA88042A67
:100D400074D8254C920023706370244B9B5C9E07E3
:100D500073D5217071E0AA8802F07F02042A65DC55
:100D60006B88002B62D191001C4A0A44117821F053
:100D7000020159E0AA8802F07F02042A56DC6B883F
:100D8000002B53D19100154A0A44117841F0020119
:100D90004AE000BF8020074087E7FF1F11E7FF1FE1
:100DA00089E7FF1F9020074000E0FF1F74E7FF1F47
:100DB00088E7FF1FC8004000ACE6FF1F64E7FF1F85
:100DC0005CE9FF1FBCE6FF1F7EE7FF1F582A0000FB
:100DD00030C80110880040007FE7FF1FC020074097
:100DE000A8E6FF1F00E7FF1F54E7FF1F6A88A988D6
:100DF0009F4B53F8084CA3F10C00BCB133F80C6CBA
:100E0000964209D133F80A6C8E4205D1120A032AA0
:100E10000CBF2378038911E00C33EAE7954A116887
:100E2000954A1160A978954A117004E0944B0F22FD
:100E30001A7027E000231C4600E00223EE88B3422C
:100E400038BF1E46402E34BF354640252046294631
:100E5000FFF77CFD761B2C4403D1402D12D1354683
:100E600003E0402E34BF3546402520462946FFF793
:100E70006DFD761B2C4401D1402D03D1814AC8F869
:100E8000004016800122804B3DE0804B1A8842F2E0
:100E900021039A4210D100237D4AC85C9854013343
:100EA000072BF9D11368862B02D17A4B0F221A70C7
:100EB00000200146FFF74AFD774B44F8383023E025
:100EC000764E3568B5B1DFF8BC81B8F80090B9F15D
:100ED000400F34BF4C46402428462146FFF736FDDC
:100EE000C4EB09039BB2A8F800300BB9402C00D129
:100EF0002B193360654B1A88B2F5A06F04D100221C
:100F00005A709A78664B1A7001225F4B6CE004EBC2
:100F1000C806013D736802F00802A3F10800EDB2B3
:100F200002F0FF01002A36D000F034F95D485E4B34
:100F300050F82520EAB1516840F8251002F1080167
:100F40007160595D03290BD8DFE801F0020406083F
:100F5000032104E0022102E0052100E004215955AB
:100F600016F0080F12880CBF8823C82343EA0243F7
:100F700042E05A5D032A07D8DFE802F0404002044D
:100F8000002206E0012204E016F0080F0CBF022246
:100F900003225A5532E054F83820120C23F8082C5A
:100FA00022B3DFF834E123F8061C43F8041C5EF892
:100FB00025303E4913B94EF8250002E051F825309E
:100FC00058603B4B41F8250033F815100A4423F8CC
:100FD000152000F0C1F810B10830706006E0354B04
:100FE00044F838001A7801321A7007E02A4B324A66
:100FF00016F0080F08BF134644F8383008233B703A
:1010000070E5E0071FD520492B482C4C02230B70BC
:101010002B4B1A702B4B186098602B48D8601A61C4
:101020009A615C60164B0D2018702848FF230370EE
:101030002B700274264A1370264B9F221A700123CC
:101040000B70BDE8F88F210604D50D4B0D221A70E8
:1010500080232B70A20705D51C4B1A78D2B21A70C8
:1010600002232B70E30644BF10232B70BDE8F88FDA
:10107000682A0000A4E6FF1F6CE9FF1F98E7FF1F26
:10108000C02007407CE7FF1F9420074074E7FF1F44
:1010900064E9FF1F11E7FF1FC8004000A8E6FF1F1B
:1010A0009820074054E7FF1FBCE6FF1FACE6FF1F78
:1010B0005CE9FF1F7EE7FF1F88004000C0E6FF1FBE
:1010C00010E7FF1F00E0FF1F14E7FF1F8820074005
:1010D0008C2007408420074000E7FF1F08B501F07F
:1010E00083F90022184B0021D15098180832882A21
:1010F0004160F7D1154A106840F48020106002F575
:1011000028326832C3F307201070C3F307401B0E68
:1011100010751376FF2302F81C3C02F8143C02F809
:101120008C3C012302F8083C82F8641002F8183C59
:10113000074B70221A70A3F21F3308221A60054B66
:1011400010221A7008BD00BF00E0FF1F3480044069
:1011500023E400E00821074072B60C4A1168B1FA96
:1011600081F30B2B02D962B6002070474FF000408C
:10117000D84021EA0001116062B605494822534374
:10118000C8180022CA504260704700BFA0E5FF1F88
:1011900000E2FF1F0C4B4822C31AB3FBF2F30B2BE8
:1011A00011D80A4A127822B1094A12780AB1FFF717
:1011B0001BBC72B6074A4FF0004121FA03F31168D5
:1011C0001943116062B6704700E2FF1F7EE7FF1F00
:1011D00087E7FF1FA0E5FF1F10B5104C23686BB118
:1011E00020684288531C0244147A0288934212D326
:1011F000FFF7D0FF094B00221A600DE0084B1B7867
:1012000013B94FF0FF3010BD0320FFF7BFFB206084
:101210000028E5D1F5E74380204610BD94E7FF1F85
:1012200087E7FF1F10B50B4C236813B123686BB918
:1012300002E0094B1B7813B94FF0FF3010BD0320BB
:10124000FFF7A4FB20600028F0D1F5E75A8813448B
:10125000187A10BD94E7FF1F87E7FF1F044B98889B
:10126000044B1B681BB11A885B88D31A184470475B
:101270005CE9FF1F94E7FF1F10B5094B1B786BB1AA
:10128000084C206818B1FFF785FF00232360032076
:10129000FFF77CFB10B1FFF77DFFF8E710BD00BF43
:1012A00087E7FF1F94E7FF1F2DE9F8432D4E012329
:1012B00007460C463370002C4FD02B4D2B68A946A7
:1012C0002BBB47F20958294B1B7803F0FF020BB9DF
:1012D000327015E00420FFF775FB072808D80123BA
:1012E0003370FFF739FFC9F8000080B91D4B187043
:1012F000B8F101081E4B01D01A782AB101221A70E8
:101300004FF0FF30BDE8F88300F094F8DBE7296880
:10131000174A488800231370C0F14002944238BF36
:10132000224600F1080C10448C444880A41A9342D1
:1013300004D0F85C0CF803000133F8E71F444B8835
:101340003F2B06D940230B800420FFF789FB0023A5
:101350002B60084B05221A70ADE734702046BDE8BB
:10136000F88300BF8AE7FF1F8CE7FF1F87E7FF1F97
:1013700090E7FF1F89E7FF1F07B502AB012103F8C4
:10138000010D1846FFF790FF03B05DF804FBFFFF67
:101390002DE9F041114B1B78F3B1114E114B34681C
:1013A000114D01271F7098464CB1002763882F709C
:1013B000042023802146FFF753FB376009E0FFF745
:1013C000CBFE014620B104202C70FFF749FB00E062
:1013D0002F70002388F80030BDE8F08187E7FF1FF9
:1013E0008CE7FF1F8AE7FF1F89E7FF1F38B50E4B09
:1013F0001B7803F0FF05ABB90C4C216831B14B8869
:101400000B800420FFF72CFB256038BDFFF7A4FEFE
:10141000014620B10420BDE83840FFF721BB044B52
:1014200001221A7038BD00BF8AE7FF1F8CE7FF1F3B
:1014300089E7FF1F10B50E4C2378BBB90123237039
:10144000FFF70CFF08B101F09CF900F075FA08B144
:1014500001F074F800F0D6FC08B101F0F1F800F0EA
:10146000F7FE08B101F06EF90023237010BD00BF34
:1014700099E7FF1F1B4B60221A70E1225A701A4B2A
:101480001A4A19781A4B082901D1012102E00A29C8
:1014900003D139211160132205E00C290CBF35213D
:1014A0003D21116012221A60124B1A78124B02B1C0
:1014B00001221A60114B1A78114B012A01D880229F
:1014C0000BE0042A01D8842207E0082A01D88522EB
:1014D00003E0102A94BF862287221A60094B01225A
:1014E0001A70704700400740A4E5FF1F08B0034092
:1014F0000CB003409BE7FF1F20B00340A5E5FF1F92
:1015000024B003409AE7FF1F024B1A6801321A60A9
:10151000704700BFA4E6FF1F08B50B4C23685803B3
:1015200001D5FFF7DDFA2368590501D500F07AFAF5
:1015300023681A0501D500F0C9FC2368DB04ECD54B
:1015400000F0EAFEE9E700BF3480044008B5FFF789
:10155000E3FFFFFF014B10221A8070470020054077
:101560007047FFFFEFF313839BB9EFF3108098B937
:10157000EFF3058323B10F2B04D9084A985C01E0EF
:101580004FF48070EFF311833BB1834238BF1846AC
:1015900070474FF0FF30704718467047F0E300E0A7
:1015A000194B1A6842F480621A60184A00231370BB
:1015B000174A1370174A1370174A1370174A13709B
:1015C000174B40F213321A604FF451725A60154BA8
:1015D000C0F344321A70C0F347125A7000F01F0073
:1015E0000422022198729A70D9745A7588221A744A
:1015F0003C22DA700C4B40221A70A3F544734FF46E
:1016000080321A60704700BF3480044022E8FF1F18
:10161000A1E7FF1F28E8FF1F23E8FF1FA0E7FF1F28
:1016200040A0044000A0064010E400E0134A937874
:1016300000F0030103F0EC030B43410748BF43F004
:101640001003937000F00F03042B0C4903D18B7926
:1016500043F040038B715379C20603F0EF03074A4E
:1016600048BF43F0100353719379810603F0EF03F1
:1016700048BF43F010039371704700BF00A00640BD
:1016800008B5114B1B685B0500D408BD0F4B1A78D9
:1016900002F0FF0312B1FFF7CDFEF7E70C4A4FF45B
:1016A000803111600B4A0C49D37040F203120A607A
:1016B0004A600A4A13700A4A13700A4B1B680BB13E
:1016C00001221A7008BD00BF34800440A0E7FF1F4C
:1016D00080E100E000A0064040A0044022E8FF1F97
:1016E000A1E7FF1F9CE7FF1F38B50446094B1B7895
:1016F00003F0FF05002BF9D120460121FFF790F8F8
:1017000020462946FFF76CF8034B53F83420034B6F
:101710001A6038BDA0E7FF1F4829000024E8FF1F1A
:101720000D4A38B5146814F480624FF0000410D0EC
:1017300021280A4D0AD80A4A012152F830302B607C
:10174000FFF76EF82B681C70012038BD2C60204616
:1017500038BD104638BD00BF348004409CE7FF1FF1
:10176000482900000E4B1B6813F4806316D0122822
:101770000C4B03D140F202310B4A04E0142809D18A
:101780000A4A40F2023111605A7B42F001025A7358
:10179000012070475A7B02F0FE025A730020704706
:1017A0003480044000A006400CA0044014C0044053
:1017B000F8B51D4B1B685A05064633D51B4B1B68F5
:1017C0000BB101221A701A4B1C780134402C1F46B1
:1017D00028BF0024174D2B78A34218D1FFF7C2FE73
:1017E00040280FDC144A13791B06F3D52B781349D4
:1017F0000133402B28BF0023C95CDBB2C9B2D171D1
:101800002B70E7E7FF28E5DDFFF714FEE2E70B4B5F
:10181000F6B21E550A4B01221A70074BE4B2BC22E5
:101820003C70DA70F8BD00BF3480044024E8FF1F2C
:1018300028E8FF1F23E8FF1F00A00640A2E7FF1FC4
:10184000A0E7FF1F274B1B685A052DE9F047074605
:101850008A4644D5244B1B680BB101221A703D46C1
:1018600007EB0A039D4237D2DFF890801F4E98F8AD
:10187000004096F800900134402C28BF00245FFA05
:1018800089F9A1451DD11A4BBC22DA70FFF76AFE17
:1018900040280FDC164A13791B060FD533781549FB
:1018A0000133402B28BF0023C95CDBB2C9B2D17120
:1018B000337003E0FF2801DDFFF7BCFD33784B45B3
:1018C000E4D00C4B15F8012B1A550B4B0122E4B256
:1018D0001A7088F80040C3E7054BBC22DA70BDE8F7
:1018E000F08700BF3480044024E8FF1F23E8FF1F77
:1018F00000A00640A2E7FF1FA0E7FF1F28E8FF1F88
:1019000008B5034B1B7813B1FFF794FDF9E708BD49
:10191000A0E7FF1F064A074B1B781078DBB2C0B266
:1019200083422CBF3F3000F1FF30C01A704700BF28
:1019300023E8FF1F28E8FF1F054B1878054B1B788D
:10194000C0B2DBB2984238BF4030C01A704700BF07
:1019500022E8FF1FA1E7FF1F10B5104B10491A78AE
:101960000B78D2B2DBB29A4214D00133402B28BF9D
:1019700000230C48DCB2C05C0C700B490968C0B293
:1019800051B19A4238BF4032D31A1A2B04DC0023DB
:101990000B7010BD4FF0FF3010BD00BF22E8FF1FDD
:1019A000A1E7FF1FE2E7FF1F9CE7FF1F084B1A7824
:1019B000084B1B78DBB29A4207D00133402B28BF7B
:1019C0000023054AD05CC0B270474FF0FF3070472B
:1019D00022E8FF1FA1E7FF1FE2E7FF1F0C4B1B6878
:1019E0005B0514D50B4BDA7802F0CB02DA7040229B
:1019F0005A74DA7842F03402DA70074B1A78074BDF
:101A0000D2B21A70064B1B680BB100221A707047D5
:101A10003480044000A00640A1E7FF1F22E8FF1F1A
:101A20009CE7FF1F30B5374B1A7912F0300F31D0D9
:101A300072B69A7D02F0FF0022B9DA7940225A7418
:101A400062B627E062B6304A304913780978DBB2D3
:101A5000C9B214462B4AD5795A1C402A28BF002205
:101A60008A42EDB202D02A4B9D541346421E12F018
:101A7000FF00EFD1DAB22270264A126852B18B42CF
:101A800036BFC1F14001C1EB03035B18272BC4BF74
:101A9000012313701B4BD978C9B20C0620D51B79D2
:101AA00018061DD51C4B1D4A1D781378EDB2DBB20C
:101AB0001046AB420CD0134A0133402B1479184C1A
:101AC00028BF0023E45CE4B2D471127D072AF0D968
:101AD000DBB203700B4B1A79120644BF7C22DA701A
:101AE0004B060ED5074B1A7912F0400F194608D055
:101AF0000C4B00221A700C4B1B6803B11A703C236C
:101B0000CB7030BD00A0064022E8FF1FA1E7FF1FF9
:101B1000E2E7FF1F9CE7FF1F28E8FF1F23E8FF1FE6
:101B2000A2E7FF1FA0E7FF1F24E8FF1F164B1A685C
:101B300042F400621A60154A00231370144A1370AD
:101B4000144A1370144A1370144A1370144A40F262
:101B5000133111604FF451715160124AC0F3443196
:101B60001170C0F3471100F01F0051709072937014
:101B700013742C23D3700C4B40221A70A3F212332F
:101B80004FF480221A607047348004409AE8FF1FA7
:101B900031E8FF1FA0E8FF1F9BE8FF1F30E8FF1F91
:101BA0000CB0044000B0064012E400E0134A937801
:101BB00000F0030103F0EC030B43410748BF43F07F
:101BC0001003937000F00F03042B0C4903D18B79A1
:101BD00043F040038B715379C20603F0EF03074AC9
:101BE00048BF43F0100353719379810603F0EF036C
:101BF00048BF43F010039371704700BF00B0064028
:101C000008B5114B1B681B0500D408BD0F4B1A7893
:101C100002F0FF0312B1FFF70DFCF7E70C4A4FF497
:101C2000802111600B4A0C49D37040F203120A6004
:101C30004A600A4A13700A4A13700A4B1B680BB1B8
:101C400001221A7008BD00BF3480044030E8FF1F35
:101C500080E100E000B006400CB004409AE8FF1FAD
:101C600031E8FF1F2CE8FF1F38B50446094B1B78ED
:101C700003F0FF05002BF9D120460121FEF7D0FD2E
:101C800020462946FEF7ACFD034B53F83420034BA6
:101C90001A6038BD30E8FF1F482900009CE8FF1F8C
:101CA0000D4A38B5146814F400624FF0000410D0E7
:101CB00021280A4D0AD80A4A012152F830302B60F7
:101CC000FEF7AEFD2B681C70012038BD2C6020464D
:101CD00038BD104638BD00BF348004402CE8FF1FDB
:101CE000482900000B4B1B6813F4006310D0172821
:101CF000094B09D1094A40F2023111605A7B42F086
:101D000001025A73012070475A7B02F0FE025A7397
:101D1000002070473480044000B0064008B0044002
:101D2000F8B51D4B1B681A05064633D51B4B1B68BF
:101D30000BB101221A701A4B1C780134282C1F4653
:101D400028BF0024174D2B78A34218D1FFF70AFCB7
:101D500040280FDC144A13791B06F3D52B7813495E
:101D60000133282B28BF0023C95CDBB2C9B2D17173
:101D70002B70E7E7FF28E5DDFFF75CFBE2E70B4BA5
:101D8000F6B21E550A4B01221A70074BE4B2AC2280
:101D90003C70DA70F8BD00BF348004409CE8FF1F3F
:101DA000A0E8FF1F9BE8FF1F00B0064032E8FF1FBE
:101DB00030E8FF1F38B504464518AC4204D014F88B
:101DC000010BFFF7ADFFF8E738BDFFFF08B5034B88
:101DD0001B7813B1FFF72EFBF9E708BD30E8FF1FB2
:101DE000064A074B1B781078DBB2C0B283422CBF87
:101DF000273000F1FF30C01A704700BF9BE8FF1F7B
:101E0000A0E8FF1F054B1878054B1B78C0B2DBB26A
:101E1000984238BF4030C01A704700BF9AE8FF1F91
:101E200031E8FF1F10B5104B10491A780B78D2B269
:101E3000DBB29A4214D00133402B28BF00230C4858
:101E4000DCB2C05C0C700B490968C0B251B19A4257
:101E500038BF4032D31A1A2B04DC00230B7010BD9C
:101E60004FF0FF3010BD00BF9AE8FF1F31E8FF1FA1
:101E70005AE8FF1F2CE8FF1F084B1A78084B1B7805
:101E8000DBB29A4207D00133402B28BF0023054A1A
:101E9000D05CC0B270474FF0FF3070479AE8FF1F28
:101EA00031E8FF1F5AE8FF1F054B1A78054BD2B2E5
:101EB0001A70054B1B680BB100221A70704700BFE7
:101EC00031E8FF1F9AE8FF1F2CE8FF1F10B5214BD8
:101ED0001A7992060FD5204AD87913781F49013311
:101EE000402B097828BF00238B42C0B203D01C4985
:101EF000C854DBB21370174AD178C9B20C0616D594
:101F00001379180613D5174B17481C780378DBB2E2
:101F10009C4202D16C23D37009E00133282B28BFE7
:101F20000023124CE45CDBB2E4B2D47103704B06C4
:101F30000ED5084B1A7912F0400F194608D00C4BF9
:101F400000221A700B4B1B6803B11A702C23CB7044
:101F500010BD00BF00B006409AE8FF1F31E8FF1F28
:101F60005AE8FF1FA0E8FF1F9BE8FF1F32E8FF1F92
:101F700030E8FF1F9CE8FF1F164B1A6842F480529E
:101F80001A60154A00231370144A1370144A137010
:101F9000144A1370144A1370144A40F2133111603A
:101FA0004FF451715160124AC0F344311170C0F3C3
:101FB000471100F01F0051709072937013742C231E
:101FC000D3700C4B40221A70A3F545734FF4801266
:101FD0001A6070473480044012E9FF1FA9E8FF1F10
:101FE00018E9FF1F13E9FF1FA8E8FF1F08C00440FE
:101FF00000C0064014E400E0134A937800F00301A7
:1020000003F0EC030B43410748BF43F01003937008
:1020100000F00F03042B0C4903D18B7943F04003EC
:102020008B715379C20603F0EF03074A48BF43F0B0
:10203000100353719379810603F0EF0348BF43F017
:1020400010039371704700BF00C0064008B5114BE4
:102050001B68DB0400D408BD0F4B1A7802F0FF03A5
:1020600012B1FFF7E7F9F7E70C4A4FF4801111605E
:102070000B4A0C49D37040F203120A604A600A4AC4
:1020800013700A4A13700A4B1B680BB101221A70B5
:1020900008BD00BF34800440A8E8FF1F80E100E0D5
:1020A00000C0064008C0044012E9FF1FA9E8FF1F56
:1020B000A4E8FF1F38B50446094B1B7803F0FF0561
:1020C000002BF9D120460121FEF7AAFB2046294624
:1020D000FEF786FB034B53F83420034B1A6038BDE0
:1020E000A8E8FF1F4829000014E9FF1F0D4A38B572
:1020F000146814F480524FF0000410D021280A4DC7
:102100000AD80A4A012152F830302B60FEF788FBCA
:102110002B681C70012038BD2C60204638BD10464D
:1021200038BD00BF34800440A4E8FF1F48290000E8
:102130000B4B1B6813F4805310D00E28094B09D1A8
:10214000094A40F2023111605A7B42F001025A738F
:10215000012070475A7B02F0FE025A73002070473C
:102160003480044000C0064004C00440F8B51D4B54
:102170001B68DA04064633D51B4B1B680BB10122E2
:102180001A701A4B1C780134282C1F4628BF0024D3
:10219000174D2B78A34218D1FFF7E4F940280FDC44
:1021A000144A13791B06F3D52B7813490133282BD6
:1021B00028BF0023C95CDBB2C9B2D1712B70E7E73D
:1021C000FF28E5DDFFF736F9E2E70B4BF6B21E55C7
:1021D0000A4B01221A70074BE4B2AC223C70DA7051
:1021E000F8BD00BF3480044014E9FF1F18E9FF1F49
:1021F00013E9FF1F00C00640AAE8FF1FA8E8FF1F61
:1022000038B504464518AC4204D014F8010BFFF76A
:10221000ADFFF8E738BDFFFF08B5034B1B7813B1DE
:10222000FFF708F9F9E708BDA8E8FF1F064A074BC2
:102230001B781078DBB2C0B283422CBF273000F18C
:10224000FF30C01A704700BF13E9FF1F18E9FF1FD6
:10225000054B1878054B1B78C0B2DBB2984238BFEB
:102260004030C01A704700BF12E9FF1FA9E8FF1FE6
:1022700010B5104B10491A780B78D2B2DBB29A42E3
:1022800014D00133402B28BF00230C48DCB2C05CC3
:102290000C700B490968C0B251B19A4238BF403244
:1022A000D31A1A2B04DC00230B7010BD4FF0FF3043
:1022B00010BD00BF12E9FF1FA9E8FF1FD2E8FF1FF2
:1022C000A4E8FF1F084B1A78084B1B78DBB29A4230
:1022D00007D00133402B28BF0023054AD05CC0B291
:1022E00070474FF0FF30704712E9FF1FA9E8FF1F4A
:1022F000D2E8FF1F054B1A78054BD2B21A70054B76
:102300001B680BB100221A70704700BFA9E8FF1FBD
:1023100012E9FF1FA4E8FF1F10B5294B1A79920696
:1023200020D5284AD879137827490133402B0978DA
:1023300028BF00238B42C0B203D02449C854D9B26D
:102340001170234A116869B1224A1278D2B29342BD
:1023500036BFC2F14002C2EB03039B18272BC4BF58
:1023600001230B70164AD178C9B20C0616D5137921
:10237000180613D5184B17481C780378DBB29C421B
:1023800002D16C23D37009E00133282B28BF00232E
:10239000124CE45CDBB2E4B2D47103704B060ED590
:1023A000074B1A7912F0400F194608D00C4B002247
:1023B0001A700C4B1B6803B11A702C23CB7010BD24
:1023C00000C0064012E9FF1FA9E8FF1FD2E8FF1F67
:1023D000A4E8FF1F13E9FF1F18E9FF1FAAE8FF1F6A
:1023E000A8E8FF1F14E9FF1F1FB572B6154B702236
:1023F0001A70154A412111700F2102F8011C802228
:102400001A701A781206FCD5104B186862B6104B79
:10241000984298BF0A2301AC98BF584321460A222C
:1024200000F0BEF90023E15C0A4A29B102EB430047
:1024300001330A2B4180F6D101335B00137004B0E5
:1024400010BD00BF0000024007000240080002402B
:102450007F9698002EE6FF1F08B50368C9B21B6877
:10246000984708BD08B50368C9B21B68984708BDFE
:1024700008B50368C9B21B68984708BD08B503686A
:10248000C9B21B68984708BD4B0803F1B76000F557
:102490005840B0FBF1F0FFF783B810B54B0803F1DB
:1024A000B76000F558401446B0FBF1F0FFF778F83C
:1024B0002046BDE81040FFF7B9B8FFF7E1B808467D
:1024C000FFF712B908B50846FFF72AF9003018BF20
:1024D000012008BD08B50846FFF744F9003018BFD1
:1024E000012008BDFFF728BAFFF760BAFFF734BA3A
:1024F000FFF706BAFFF772BAFFF70CBA08B508463D
:10250000FFF756F9012008BD08B50846FFF750F956
:10251000012008BD10B5084614461146FFF792F990
:10252000204610BD38B508460D4600F08CF904462B
:1025300021462846FFF786F9204638BD7047FFFF41
:10254000044B00221A714FF47A711A73024A99608F
:102550001A6070471CE9FF1FB82A000008B503681D
:10256000C9B21B68984708BD08B50368C9B21B68A3
:10257000984708BD08B50368C9B21B68984708BDED
:1025800008B50368C9B21B68984708BD4B0803F13A
:10259000B76000F55840B0FBF1F0FFF7C7BA10B5CF
:1025A0004B0803F1B76000F558401446B0FBF1F05A
:1025B000FFF7BCFA2046BDE81040FFF7F7BAFFF777
:1025C0001FBB0846FFF750BB08B50846FFF768FB7E
:1025D000003018BF012008BD08B50846FFF782FB90
:1025E000003018BF012008BDFFF70CBCFFF744BC4A
:1025F000FFF718BCFFF7EABBFFF756BCFFF7F0BBCD
:1026000008B50846FFF78CFB012008BD08B5084651
:10261000FFF786FB012008BD10B508461446114699
:10262000FFF7C8FB204610BD38B508460D4600F040
:102630000AF9044621462846FFF7BCFB204638BD70
:102640007047FFFF044B00221A714FF47A711A731E
:10265000024A99601A6070472CE9FF1F102B000096
:1026600008B50368C9B21B68984708BD08B5036878
:10267000C9B21B68984708BD08B50368C9B21B6892
:10268000984708BD08B50368C9B21B68984708BDDC
:102690004B0803F1B76000F55840B0FBF1F0FFF7CD
:1026A0006BBC10B54B0803F1B76000F558401446F9
:1026B000B0FBF1F0FFF760FC2046BDE81040FFF7EB
:1026C0009BBCFFF7C3BC0846FFF7F4BC08B508463F
:1026D000FFF70CFD003018BF012008BD08B5084603
:1026E000FFF726FD003018BF012008BDFFF7B0BD81
:1026F000FFF7E8BDFFF7BCBDFFF78EBDFFF7FABDE2
:10270000FFF794BD08B50846FFF730FD012008BD6E
:1027100008B50846FFF72AFD012008BD10B5084698
:1027200014461146FFF76CFD204610BD38B508462B
:102730000D4600F088F8044621462846FFF760FD64
:10274000204638BD7047FFFF044B00221A714FF43A
:102750007A711A73024A99601A6070473CE9FF1F48
:10276000682B0000FEF77ABDFEF736BDFEF75ABDB6
:10277000FEF70EBE0846FEF7FFBD08461146FEF7FF
:1027800093BD7047044B00221A714FF47A711A738B
:10279000024A99601A6070474CE9FF1FC02B000085
:1027A00010B50023B0FBF2F402FB1400092894BF1B
:1027B00030303730C0B2C85420460CB10133F1E795
:1027C000CA18547022469A4206DA885CCC5C8C5453
:1027D000C8540132013BF6E7084610BD70B50E4BF8
:1027E0000E4DED1AAD1000241E46AC4204D056F832
:1027F000242090470134F8E700F0EEF9084D094B2A
:10280000ED1AAD1000241E46AC4204D056F8242028
:1028100090470134F8E770BDE42B0000E42B000082
:10282000F82B0000E42B000030B50023934208D0C1
:10283000C55C0133CC1814F8014CA542F6D0281B16
:1028400030BD002030BD034613F8012B002AFBD118
:10285000181A0138704770B592B10B4605461C78BE
:1028600010F8016BB44201F1010101D1012A03D139
:1028700028781B78C01A70BD013A002CEDD1F7E71B
:10288000104670BD3230302057656C636F6D650D3A
:102890000A007665726966790032303120566572B9
:1028A00069666965640D0A003430312056657269C5
:1028B0006669636174696F6E206661696C65640D39
:1028C0000A0073746F726500343032204E6F7420CA
:1028D00076657269666965640D0A00343033204993
:1028E0006E76616C6964206E6F6E63650D0A0032EE
:1028F0003032204E6F6E6365207772697474656E36
:102900000D0A0034303020556E6B6E6F776E206389
:102910006F6D6D616E640D0A00343034204E756D3C
:10292000626572206F6620747269657320657863D2
:1029300065656465640D0A006FF07F0303700378BA
:1029400013F0800FFBD070474008FE4340A00440C6
:102950004408FE4344A004400018FE4300C0044065
:102960003000FE43309004403400FE433490044075
:102970001C18FE431CC004401018FE4310C0044045
:102980000818FE4308C004400C18FE430CC0044065
:102990000C10FE430CB004401010FE4310B0044075
:1029A0001810FE4318B004401C10FE431CB0044035
:1029B0001410FE4314B004400418FE4304C0044045
:1029C0000010FE4300B004400008FE4300A0044095
:1029D0000408FE4304A004400C08FE430CA004407D
:1029E0000808FE4308A004401418FE4314C0044025
:1029F0001818FE4318C004400410FE4304B00440FD
:102A00000810FE4308B004401400FE431490044034
:102A10004C08FE434CA004400420FE4304D0044074
:102A20002410FE4324B004402010FE4320B0044094
:102A30002810FE4328B004402C10FE432CB0044064
:102A40000020FE4300D004404808FE4348A0044054
:102A50001000FE43109004400015191500010000FD
:102A6000A6E5FF1F1200000000020000D0E5FF1FD6
:102A700043000000000300002AE6FF1F00000000E2
:102A800001030904B8E5FF1F000000000203090468
:102A900014E6FF1F00000000030309042EE6FF1FD9
:102AA0000000000000000000000000000000000026
:102AB0000000000000000000FD24000015250000BB
:102AC000E5240000ED240000E9240000F1240000CA
:102AD000892400009B240000BB240000BF240000C8
:102AE000C5240000D5240000F5240000F9240000CE
:102AF0005924000065240000712400007D2400009A
:102B0000252500000925000000000000000000004D
:102B10000126000019260000E9250000F12500002B
:102B2000ED250000F52500008D2500009F25000003
:102B3000BF250000C3250000C9250000D9250000DD
:102B4000F9250000FD2500005D2500006925000035
:102B50007525000081250000292600000D260000B3
:102B60000000000000000000052700001D270000F5
:102B7000ED260000F5260000F1260000F9260000F1
:102B800091260000A3260000C3260000C7260000EF
:102B9000CD260000DD260000FD26000001270000F4
:102BA000612600006D2600007926000085260000C1
:102BB0002D27000011270000000000000000000089
:102BC000752700007B2700006527000069270000AB
:102BD0006D27000071270000F8B500BFF8BC08BCE5
:102BE0009E46704735040000412500004526000040
:082BF0004927000085270000C1
:102BF800343234323432343234323432343234329D
:102C0800343234323432343234323432343234328C
:102C1800343234323432343234323432343234327C
:102C2800343234323432343234323432343234326C
:102C3800FFFFFFFF0A041201000202000040C01655
:102C480083040001010203011803540065006500B4
:102C58006E00730079006400750069006E006F00F3
:102C680009024300020100C0320904000001020207
:102C780001000524001001052401010104240206B5
:102C8800052406000107058203100040090401001D
:102C9800020A00000007050302400000070584023D
:102CA8004000000016035500530042002000530066
:102CB80065007200690061006C00040309040C03DC
:102CC80000000000000000000000000000000000FC
:042CD80000000000F8
:00000001FF
